{
  "address": "0x6bd724AF600D5CCC313Dac0BA6B96dCed1C07F6d",
  "abi": [
    {
      "anonymous": false,
      "inputs": [
        {
          "indexed": false,
          "internalType": "string",
          "name": "confession",
          "type": "string"
        }
      ],
      "name": "Confessed",
      "type": "event"
    },
    {
      "inputs": [
        {
          "internalType": "string",
          "name": "theConfession",
          "type": "string"
        }
      ],
      "name": "confess",
      "outputs": [],
      "stateMutability": "nonpayable",
      "type": "function"
    }
  ],
  "transactionHash": "0xc43589c40c872a5c7c6e84039a89e22f81293a61c8d51b03c52e738602458f0e",
  "args": [],
  "numDeployments": 1,
  "solcInputHash": "995b942b12867adc8a44e0a99e7c3bed",
  "bytecode": "0x608060405234801561001057600080fd5b50610300806100206000396000f3fe608060405234801561001057600080fd5b506004361061002b5760003560e01c806304141e6014610030575b600080fd5b61004a600480360381019061004591906101e0565b61004c565b005b7ff724f9e2da495396b340d87fd8ed10bf7644c395261d609ee4aa11637c0fb9d58160405161007b91906102a8565b60405180910390a150565b6000604051905090565b600080fd5b600080fd5b600080fd5b600080fd5b6000601f19601f8301169050919050565b7f4e487b7100000000000000000000000000000000000000000000000000000000600052604160045260246000fd5b6100ed826100a4565b810181811067ffffffffffffffff8211171561010c5761010b6100b5565b5b80604052505050565b600061011f610086565b905061012b82826100e4565b919050565b600067ffffffffffffffff82111561014b5761014a6100b5565b5b610154826100a4565b9050602081019050919050565b82818337600083830152505050565b600061018361017e84610130565b610115565b90508281526020810184848401111561019f5761019e61009f565b5b6101aa848285610161565b509392505050565b600082601f8301126101c7576101c661009a565b5b81356101d7848260208601610170565b91505092915050565b6000602082840312156101f6576101f5610090565b5b600082013567ffffffffffffffff81111561021457610213610095565b5b610220848285016101b2565b91505092915050565b600081519050919050565b600082825260208201905092915050565b60005b83811015610263578082015181840152602081019050610248565b60008484015250505050565b600061027a82610229565b6102848185610234565b9350610294818560208601610245565b61029d816100a4565b840191505092915050565b600060208201905081810360008301526102c2818461026f565b90509291505056fea2646970667358221220d8125eac548be36a083f71d7dbc8c2ae31a8546bade8d77fc0b286081c69f07864736f6c63430008120033",
  "devdoc": {
    "kind": "dev",
    "methods": {},
    "version": 1
  },
  "userdoc": {
    "kind": "user",
    "methods": {},
    "version": 1
  },
  "storageLayout": {
    "storage": [],
    "types": null
  }
}