{
  "address": "0xDef94e2eaE1A10BaEE9421Bf53594096918Cc931",
  "abi": [
    {
      "anonymous": false,
      "inputs": [
        {
          "indexed": false,
          "internalType": "string",
          "name": "confession",
          "type": "string"
        },
        {
          "indexed": false,
          "internalType": "uint256",
          "name": "num",
          "type": "uint256"
        }
      ],
      "name": "Confessed",
      "type": "event"
    },
    {
      "inputs": [
        {
          "internalType": "string",
          "name": "theConfession",
          "type": "string"
        }
      ],
      "name": "confess",
      "outputs": [],
      "stateMutability": "nonpayable",
      "type": "function"
    },
    {
      "inputs": [],
      "name": "getCounter",
      "outputs": [
        {
          "internalType": "uint256",
          "name": "",
          "type": "uint256"
        }
      ],
      "stateMutability": "view",
      "type": "function"
    }
  ],
  "transactionHash": "0x0cc2486726d11909f4dc669b1d89c3f6823ecf844690d847a0172353d7f32397",
  "args": [],
  "numDeployments": 3,
  "solcInputHash": "5d0f2e06755e9d48db3439d3471086b7",
  "bytecode": "0x60806040526000805534801561001457600080fd5b50610406806100246000396000f3fe608060405234801561001057600080fd5b50600436106100365760003560e01c806304141e601461003b5780638ada066e14610057575b600080fd5b6100556004803603810190610050919061022d565b610075565b005b61005f6100ca565b60405161006c919061028f565b60405180910390f35b600080815480929190610087906102d9565b91905055507f7d4ef4ff84f4c55376da96c1965f25d6ea4873ecc59f03aedf850489ce8ba1cc816000546040516100bf9291906103a0565b60405180910390a150565b60008054905090565b6000604051905090565b600080fd5b600080fd5b600080fd5b600080fd5b6000601f19601f8301169050919050565b7f4e487b7100000000000000000000000000000000000000000000000000000000600052604160045260246000fd5b61013a826100f1565b810181811067ffffffffffffffff8211171561015957610158610102565b5b80604052505050565b600061016c6100d3565b90506101788282610131565b919050565b600067ffffffffffffffff82111561019857610197610102565b5b6101a1826100f1565b9050602081019050919050565b82818337600083830152505050565b60006101d06101cb8461017d565b610162565b9050828152602081018484840111156101ec576101eb6100ec565b5b6101f78482856101ae565b509392505050565b600082601f830112610214576102136100e7565b5b81356102248482602086016101bd565b91505092915050565b600060208284031215610243576102426100dd565b5b600082013567ffffffffffffffff811115610261576102606100e2565b5b61026d848285016101ff565b91505092915050565b6000819050919050565b61028981610276565b82525050565b60006020820190506102a46000830184610280565b92915050565b7f4e487b7100000000000000000000000000000000000000000000000000000000600052601160045260246000fd5b60006102e482610276565b91507fffffffffffffffffffffffffffffffffffffffffffffffffffffffffffffffff8203610316576103156102aa565b5b600182019050919050565b600081519050919050565b600082825260208201905092915050565b60005b8381101561035b578082015181840152602081019050610340565b60008484015250505050565b600061037282610321565b61037c818561032c565b935061038c81856020860161033d565b610395816100f1565b840191505092915050565b600060408201905081810360008301526103ba8185610367565b90506103c96020830184610280565b939250505056fea2646970667358221220f0fe04396d42b7fa7d4fa6c40482075ecfeff3f9bebc7de967994318f95b087564736f6c63430008120033",
  "devdoc": {
    "kind": "dev",
    "methods": {},
    "version": 1
  },
  "userdoc": {
    "kind": "user",
    "methods": {},
    "version": 1
  },
  "storageLayout": {
    "storage": [
      {
        "astId": 4,
        "contract": "contracts/Confessions.sol:Confessions",
        "label": "counter",
        "offset": 0,
        "slot": "0",
        "type": "t_uint256"
      }
    ],
    "types": {
      "t_uint256": {
        "encoding": "inplace",
        "label": "uint256",
        "numberOfBytes": "32"
      }
    }
  }
}