{
  "_format": "hh-sol-artifact-1",
  "contractName": "Confessions",
  "sourceName": "contracts/Confessions.sol",
  "abi": [
    {
      "anonymous": false,
      "inputs": [
        {
          "indexed": false,
          "internalType": "string",
          "name": "confession",
          "type": "string"
        }
      ],
      "name": "Confessed",
      "type": "event"
    },
    {
      "inputs": [
        {
          "internalType": "string",
          "name": "theConfession",
          "type": "string"
        }
      ],
      "name": "confess",
      "outputs": [],
      "stateMutability": "nonpayable",
      "type": "function"
    },
    {
      "inputs": [],
      "name": "getCounter",
      "outputs": [
        {
          "internalType": "uint256",
          "name": "",
          "type": "uint256"
        }
      ],
      "stateMutability": "view",
      "type": "function"
    }
  ],
  "bytecode": "0x60806040526000805534801561001457600080fd5b506103f4806100246000396000f3fe608060405234801561001057600080fd5b50600436106100365760003560e01c806304141e601461003b5780638ada066e14610057575b600080fd5b61005560048036038101906100509190610229565b610075565b005b61005f6100c6565b60405161006c919061028b565b60405180910390f35b7ff724f9e2da495396b340d87fd8ed10bf7644c395261d609ee4aa11637c0fb9d5816040516100a49190610325565b60405180910390a16000808154809291906100be90610376565b919050555050565b60008054905090565b6000604051905090565b600080fd5b600080fd5b600080fd5b600080fd5b6000601f19601f8301169050919050565b7f4e487b7100000000000000000000000000000000000000000000000000000000600052604160045260246000fd5b610136826100ed565b810181811067ffffffffffffffff82111715610155576101546100fe565b5b80604052505050565b60006101686100cf565b9050610174828261012d565b919050565b600067ffffffffffffffff821115610194576101936100fe565b5b61019d826100ed565b9050602081019050919050565b82818337600083830152505050565b60006101cc6101c784610179565b61015e565b9050828152602081018484840111156101e8576101e76100e8565b5b6101f38482856101aa565b509392505050565b600082601f8301126102105761020f6100e3565b5b81356102208482602086016101b9565b91505092915050565b60006020828403121561023f5761023e6100d9565b5b600082013567ffffffffffffffff81111561025d5761025c6100de565b5b610269848285016101fb565b91505092915050565b6000819050919050565b61028581610272565b82525050565b60006020820190506102a0600083018461027c565b92915050565b600081519050919050565b600082825260208201905092915050565b60005b838110156102e05780820151818401526020810190506102c5565b60008484015250505050565b60006102f7826102a6565b61030181856102b1565b93506103118185602086016102c2565b61031a816100ed565b840191505092915050565b6000602082019050818103600083015261033f81846102ec565b905092915050565b7f4e487b7100000000000000000000000000000000000000000000000000000000600052601160045260246000fd5b600061038182610272565b91507fffffffffffffffffffffffffffffffffffffffffffffffffffffffffffffffff82036103b3576103b2610347565b5b60018201905091905056fea264697066735822122057c7d01bb7bb28d538f6b561c3c9c59808f7f147f0324559464ad2c824fe618b64736f6c63430008120033",
  "linkReferences": {},
  "deployedLinkReferences": {}
}